:060000000A128A11FC2F18
:100F8800F1007108F0000310700C71060800F030D1
:100F9800831603138605F030831203138605F601C2
:100FA80076080A128A11C4270A128A11F5000F302E
:100FB800F505831203130608F039750486000D3011
:100FC800F400AF30F300B630F200F20BE92FF30B68
:100FD800E92FF40BE92F00000130F60710307602F4
:100FE800031CF72FF82FD42FD32F0A128A110028A9
:080FF80083010A128A11CB2FBC
:02400E00F2209E
:00000001FF
