:100000000A128A11F82F00308A000408840A820735
:100010000034C034F934A434B03499349234823486
:06002000F8348034903436
:100C9A00F501F31F512E522E592EF209F309F20AC9
:100CAA000319F30A0130F500F11F5C2E5D2E622E46
:100CBA00F009F109F00A0319F10A7008710403191D
:100CCA00672E682E952E0130F400742E0130031021
:100CDA00F00DF10DFF3E031D6C2E0130F407F11FDC
:100CEA00772E782E6B2E71087302031D7E2E7008E4
:100CFA007202031C812E822E882E7008F20271085D
:100D0A00031CF303F30201300310F10CF00CFF3E55
:100D1A00031D892E0130F402031D942E952E782E80
:100D2A0075080319992E9A2E9F2EF209F309F20AD1
:100D3A000319F30A7308F1007208F0000800F501BC
:100D4A00F11FA82EA92EB02EF009F109F00A0319F5
:100D5A00F10A0130F500F31FB32EB42EBB2EF209AF
:100D6A00F309F20A0319F30A0130F506F601F7014D
:100D7A00700871040319C22EC32EF82E0130F40034
:100D8A00CF2E01300310F00DF10DFF3E031DC72ECB
:100D9A000130F407F11FD22ED32EC62E01300310D4
:100DAA00F60DF70DFF3E031DD42E71087302031DC5
:100DBA00E02E70087202031CE32EE42EEB2E70085C
:100DCA00F2027108031CF303F302761401300310D4
:100DDA00F10CF00CFF3E031DEC2E0130F402031D52
:100DEA00F72EF82ED32E75080319FC2EFD2E022F8E
:100DFA00F609F709F60A0319F70A7708F1007608DF
:100E0A00F000080083120313A2000A30F000003039
:100E1A00F1002208F800F9017808F2007908F300D5
:100E2A000A128A114D260A128A11700883120313B4
:100E3A00A0000A30F0000030F1002208F800F901A1
:100E4A007808F2007908F3000A128A11A4260A1215
:100E5A008A11700883120313A100A301A4010230AE
:100E6A008312031385002108013E84000A128A11A5
:100E7A0003200A128A1188000D30F900FB30F800AD
:100E8A00F80B452FF90B452F4A2F01308312031314
:100E9A0085002008013E84000A128A1103200A12E2
:100EAA008A1188000D30F900FB30F800F80B5B2F2F
:100EBA00F90B5B2F602F013083120313A30703186A
:100ECA00A40A0030A4072408803AFF0080307F0279
:100EDA00031D712F32302302031C742F752F342FF8
:100EEA0008008316031388018501FF3086008312E8
:100EFA00031385018801831203130618852F862F91
:100F0A00962F0330FC000830FB007730FA00FA0B0A
:100F1A008C2FFB0B8C2FFC0B8C2F013083120313AD
:100F2A00A5008618992F9A2FA92F0330FC000830A4
:100F3A00FB007730FA00FA0BA02FFB0BA02FFC0B5B
:100F4A00A02F83120313A5010619AC2FAD2FBD2FB5
:100F5A000330FC000830FB007730FA00FA0BB32F9D
:100F6A00FB0BB32FFC0BB32F013083120313A50025
:100F7A008619C02FC12FD12F0330FC000830FB0087
:100F8A007730FA00FA0BC72FFB0BC72FFC0BC72FC2
:100F9A00FD0183120313A5017D080A128A1107278E
:100FAA000A128A118312031325080319DD2FDE2F73
:100FBA00802F0B30FC002630FB005D30FA00FA0B64
:100FCA00E42FFB0BE42FFC0BE42FEB2F0130FD0782
:100FDA0064307D02031CF22FF32F802FFD01802F36
:100FEA000A128A110028FD0183120313A501830145
:060FFA000A128A11762F95
:04400E00F22FFF3F4F
:00000001FF
