:100000000A128A11FC2F00308A000408840A820731
:100010000034C034F934A434B03499349234823486
:06002000F8348034903436
:100CF400831603138801F030860083120313A801BE
:100D0400A9012908FD002808FC000A128A111D27E0
:100D14000A128A11013083120313A8070318A90ABF
:100D24000030A90727302902103003192802031CB8
:100D34009C2E9D2E832EA801A901832E0A128A11AE
:100D44000028770878040319A82EA92ED62E01307E
:100D5400FB00B52E01300310F70DF80DFF3E031D07
:100D6400AD2E0130FB07F81FB82EB92EAC2E780833
:100D74007A02031DBF2E77087902031CC22EC32EEC
:100D8400C92E7708F9027808031CFA03FA02013025
:100D94000310F80CF70CFF3E031DCA2E0130FB02B2
:100DA400031DD52ED62EB92E7A08F8007908F7003F
:100DB4000800F401F501700871040319E22EE32E12
:100DC400182F0130F600EF2E01300310F00DF10D55
:100DD400FF3E031DE72E0130F607F11FF22EF32E1E
:100DE400E62E01300310F40DF50DFF3E031DF42E25
:100DF40071087302031D002F70087202031C032F75
:100E0400042F0B2F7008F2027108031CF303F30282
:100E1400741401300310F10CF00CFF3E031D0C2F71
:100E24000130F602031D172F182FF32E7508F10059
:100E34007408F00008000A30F7000030F8007D085C
:100E4400FA007C08F9000A128A11A3260A128A11F0
:100E5400770883120313A2000A30F7000030F80069
:100E64000A30F0000030F1007D08F3007C08F20045
:100E74000A128A11DB260A128A117108FA00700814
:100E8400F9000A128A11A3260A128A11770883121A
:100E94000313A3000A30F7000030F8006430F000B8
:100EA4000030F1007D08F3007C08F2000A128A1178
:100EB400DB260A128A117108FA007008F9000A1276
:100EC4008A11A3260A128A11770883120313A40035
:100ED4000A30F7000030F800E830F0000330F10089
:100EE4007D08F3007C08F2000A128A11DB260A123C
:100EF4008A117108FA007008F9000A128A11A326EF
:100F04000A128A11770883120313A500A601A70108
:100F140001308312031386002508013E84000A125F
:100F24008A1103200A128A1188000D3083120313D8
:100F3400A100FB30A000A00B9D2FA10B9D2F023020
:100F44008312031386002408013E84000A128A11C6
:100F540003200A128A1188000D3083120313A100A2
:100F6400FB30A000A00BB42FA10BB42F04308312CC
:100F7400031386002308013E84000A128A11032009
:100F84000A128A1188000D3083120313A100FB306A
:100F9400A000A00BCB2FA10BCB2F0830831203137F
:100FA40086002208013E84000A128A1103200A12D4
:100FB4008A1188000D3083120313A100FB30A000B6
:100FC400A00BE22FA10BE22F013083120313A6071B
:100FD4000318A70A0030A7072708803AFF008030CB
:100FE4007F02031DF72F32302602031CFA2FFB2F3A
:0C0FF4008A2F080083010A128A117A2E4D
:04400E00F22FFF3F4F
:00000001FF
