:100000000A128A11FC2F00308A000408840A820731
:0C001000003400340134033402340634A0
:100F9600F830831603138600831203138601F301C8
:100FA6007308013E84000A128A1103200A128A116C
:100FB6000739F000831203130608F8397004860017
:100FC6000B30F2002630F1005D30F000F00BE92F17
:100FD600F10BE92FF20BE92FF02F0130F307053063
:100FE6007302031CF72FF82FD32FD22F0A128A1160
:0A0FF600002883010A128A11CB2F94
:04400E00F22FFF3F4F
:00000001FF
