:060000000A128A11FC2F18
:100ED40083160313860101308500831203138601F0
:100EE400F501F601F30100308312031305180130F4
:100EF400F4007403031D7F2F802F8F2F7308031DAD
:100F0400842F852F8F2F0130F50703307502031CC2
:100F14008C2F8D2F8E2FF501F6017408F300E02F2E
:100F24000130F000760A982F0310F00DFF3E031DE8
:100F3400962F700886000130F60708307602031CED
:100F4400A42FA52FEB2FF601EB2F0130F00076082C
:100F5400073C013EAF2F0310F00DFF3E031DAD2FE4
:100F6400700886000130F60708307602031CBB2F98
:100F7400BC2FEB2FA52F18308600D72F24308600E6
:100F8400D72F42308600D72F81308600D72F76089E
:100F9400003A0319BD2F013A0319C02F033A03196C
:100FA400C32F013A0319C62FD72F0130F607043097
:100FB4007602031CDE2FDF2FEB2FA52F7508003AD6
:100FC4000319922F013A0319A72F033A0319C92FC2
:100FD400EB2F1030F2003930F1000D30F000F00B3F
:100FE400F12FF10BF12FF20BF12FF82F752F0A12BD
:0C0FF4008A11002883010A128A116A2F5A
:02400E00F2209E
:00000001FF
